:1000000000800020BD010000895000005550000014
:10001000555000005550000055500000555000004C
:100020005550000055500000555000008950000008
:1000300089500000555000008950000045500000D4
:10004000895000008950000089500000895000004C
:10005000895000008950000089500000895000003C
:10006000895000008950000089500000895000002C
:10007000895000008950000089500000895000001C
:10008000895000008950000089500000895000000C
:1000900089500000895000008950000089500000FC
:1000A00089500000895000008950000089500000EC
:1000B00089500000895000008950000089500000DC
:1000C00089500000895000008950000089500000CC
:1000D00089500000895000008950000089500000BC
:1000E00089500000895000008950000089500000AC
:1000F00089500000515C000089500000E960000058
:1001000089500000AD640000895000008950000053
:10011000895000008950000089500000895000007B
:10012000895000008950000089500000895000006B
:10013000895000008950000089500000895000005B
:10014000895000008950000089500000895000004B
:100150006174000075740000897400009D740000D3
:10016000895000005D670000895000008950000040
:10017000895000008950000089500000895000001B
:10018000895000008950000089500000895000000B
:1001900089500000895000008950000089500000FB
:1001A00089500000895000008950000089500000EB
:1001B000895000008950000099700000564B4CF2A5
:1001C000205210B51A804DF628121A8000BF00BFC9
:1001D00004F05EFF514B4FF010621A60504A9A6073
:1001E000504ADA60504A136813F4807301BF4F49D4
:1001F0000B604FF4A85313604D4B1A78110742BFA0
:100200001A7842F008021A704A4B2A221A704A4A97
:100210004A4B4B498B4204D252F8041F43F8041B4B
:10022000F7E7484A484B9A424FF0000302D242F89F
:10023000043BF7E74549464A51F8231042F823109A
:1002400001336F2BF6D1434B802103F8011B424948
:100250008B42F9D1414B1A60414B0A221A70A3F626
:10026000FF7324221A70A02203F8012C3D4B1A7848
:100270009207FBD51A78D406FCD41A7802F00C0247
:10028000082AFAD1384B03221A7040225A70354B93
:100290001A789006FBD51A785106FCD5334B344AB0
:1002A0001A6002225A60334B20221A702D4B1B78A1
:1002B00003F00C030C2BF9D12F4B304A1A60304B52
:1002C000304A1A6000225A60072243F8042C2E4A52
:1002D000C3F80C2D62B605F093FA144B1B68DA07CD
:1002E00005D52A4805F0B6F8294B2A4A1A602A4B48
:1002F0001B785B0609D5264C264B22689A4204D10E
:10030000224805F0A7F80023236008F085FA04F0DE
:10031000C5FE01F0E7FFFEE70E20054030800440F7
:10032000823F04000100002B10D0034014D0034092
:1003300002D0074000E0074028A800002087FF1FE8
:100340000C91FF1F0C91FF1FB83600200000000029
:100350000082FF1F00E400E05FE400E008ED00E041
:1003600000500640064006400440064044800440D9
:10037000000003010040064004800440C010050056
:1003800014E000E0FF7601000000202000DD68504E
:100390001CE00340A5C3945A00F00740FFFFFFFF95
:1003A000FFFFFFFFFFFFFFFFFFFFFFFFFFFFFFFF5D
:1003B000FFFFFFFFFFFFFFFFFFFFFFFFFFFFFFFF4D
:1003C000FFFFFFFFFFFFFFFFFFFFFFFFFFFFFFFF3D
:1003D000FFFFFFFFFFFFFFFFFFFFFFFFFFFFFFFF2D
:1003E000FFFFFFFFFFFFFFFFFFFFFFFFFFFFFFFF1D
:1003F000FFFFFFFFFFFFFFFFFFFFFFFFFFFFFFFF0D
:10040000FFFFFFFFFFFFFFFFFFFFFFFFFEFFFFFFFD
:1004100010B5054C237833B9044B13B10448AFF33E
:1004200000800123237010BD0C91FF1F000000000D
:100430002CA80000084B10B51BB108480849AFF3C1
:1004400000800848036803B910BD074B002BFBD0A0
:10045000BDE81040184700BF000000002CA80000B5
:100460001091FF1F0C91FF1F0000000008B51B201A
:1004700004F0F2FC07F060FF044908F065F801465B
:1004800007F0A6FE07F068FB08BD00BF00009B4315
:1004900008B51C2004F0E0FC07F04EFF044908F00A
:1004A00053F807F059FB0022024B07F0A9FB08BDE7
:1004B00000009B430000F83F2DE9F843FFF7D6FF0B
:1004C00080468946FFF7E4FF02460B464046494610
:1004D00007F0E4F924A3D3E9002307F0DDF90022B3
:1004E000234B244E244D346807F0B4FC0022234BE8
:1004F00007F086FB07F01EFE0A2245F824000134AF
:1005000094FBF2F302FB134434600027002400261E
:1005100055F8240007F00EFB02460B4630463946DC
:1005200007F0BCF901340A2C06460F46F0D1002230
:10053000134B07F08FFC0022104B04460D4607F0CA
:10054000EFFD48B9204629460022002307F0CAFDE6
:1005500020B10024002501E0084D00242046294652
:10056000BDE8F883AFF30080000000C0CCCC1C4095
:100570003333F33F7C91FF1F5491FF1F000059401C
:10058000000024402DE9F843FFF770FF06460F46B0
:10059000FFF77EFF02460B463046394607F07CF9EE
:1005A00007F0C8FD144D154E2C680028B8BF404216
:1005B0000A2246F82400013494FBF2F302FB1344B0
:1005C0002C604FF0000800244FF0000956F824007A
:1005D00007F0B0FA02460B464046494607F05EF97E
:1005E00001340A2C80468946F0D10022044B07F0E2
:1005F00031FCBDE8F88300BF5091FF1F2891FF1F19
:100600000000244010B51B20002104F0D3FF1C2063
:10061000002104F0CFFF0A24FFF74EFFFFF7B2FFDF
:10062000013CF9D110BDFFFF194A002310B513702A
:10063000184A194C1370194A1370194A072013707D
:1006400004F018FF2146172004F020FF2146162051
:1006500004F01CFF2146202004F018FF2146192039
:1006600004F014FF1720012104F0A4FF162001213B
:1006700004F0A0FF2020012104F09CFF192001219B
:1006800004F098FF10200121BDE8104004F092BF53
:100690008091FF1F8191FF1F00007A448291FF1F0C
:1006A0008391FF1F08B50121102004F055FF32206F
:1006B00005F092F810200021BDE8084004F04CBF7E
:1006C00010B53B4B1B780C460BB1404240B2394B46
:1006D0001B780BB1644264B2374B80EAE0721B783E
:1006E000A2EBE0729A4203DA002801D059DD58B239
:1006F000324B84EAE4721B78A2EBE4729A4203DA8A
:10070000002C01D050DD5CB200280FDD07F014FE94
:100710002B4907F065FE2B4907F016FF08F026F875
:100720000146172004F062FF16200FE0404207F058
:1007300003FE234907F054FE224907F005FF08F0A5
:1007400015F80146162004F051FF1720002104F08F
:100750004DFF002C10DD204607F0EEFD184907F094
:100760003FFE184907F0F0FE08F000F8014620208F
:1007700004F03CFF19200FE0604207F0DDFD104956
:1007800007F02EFE0F4907F0DFFE07F0EFFF0146EE
:10079000192004F02BFF20200021BDE8104004F0B8
:1007A00025BF584240B2A3E75C4264B2ACE700BF49
:1007B0008191FF1F8091FF1F8391FF1F8291FF1F77
:1007C0000000FA420000C842024BC0431870024BBE
:1007D000197070478091FF1F8191FF1F70B5174CF2
:1007E000174923681A225B68064620469847204628
:1007F00006F030FF134B00241C70134B1C7006F0E6
:1008000077FB0546A0B9013421460C4806F06DFF80
:100810000A4806F01FFF61B216B10846294600E0FB
:100820003046FFF74DFF4FF4FA7004F0D5FFE6E7CE
:1008300000200146FFF744FF204670BD5C360020D3
:10084000349600008291FF1F8391FF1F024B1870A6
:10085000024B1970704700BF8291FF1F8391FF1FE9
:1008600038B542230546837300242046295D0134B0
:1008700004F0CEFB102CF8D1014B1D6038BD00BF39
:100880008891FF1F38B504460025284604F0ACFBCC
:1008900060550135102DF8D1A37B422B12D0862351
:1008A00023703C2363709E23A370D723E3704AF622
:1008B0000C43E380022323710023A372E3724FF4FD
:1008C0006173A381014B1C6038BD00BF8891FF1F7D
:1008D00010B50446FFF7F0FD07F054FC607002F01D
:1008E000C1F91D4B1B689B891A1A952A01D801234F
:1008F0001FE05A00111A952901D8022319E01A4461
:10090000121A952A01D8032313E09A00111A952987
:1009100001D804230DE01A44121A952A01D80523A0
:1009200007E006225343181A952801D8A27001E067
:100930000023A3700949022222700A880023013291
:1009400092B26372E37023710A80A4F80520E37108
:100950002372A372E37210BD8891FF1F8C91FF1F59
:10096000034B1A7882421EBF024A187010707047FB
:100970008E91FF1F8491FF1F014B1878704700BFB5
:100980008491FF1F70B5054608460C4608F086FCAA
:100990002B680246214628465B68BDE87040184730
:1009A00038B50546FFF7EEFF0446284606F052FE2E
:1009B000204438BD10B5174B1B78EBB1D90707D5CC
:1009C0001549164A0C6812682240154C22600A60CC
:1009D0009A0707D51349114A0C6852682240104CF7
:1009E00062600A605B0707D50F4A0C4B11689B6871
:1009F0000B400B498B6013600C4BDA68824207D0C6
:100A00000B4A1A60D8600B4A40F0804018611A60A7
:100A100010BD00BF482D002080E100E0302D0020F7
:100A20003C2D002084E100E088E100E000C00240AD
:100A300001401F0000001F8070B5054608460C46A7
:100A400008F02CFC2B680246214628465B68BDE86E
:100A5000704018470368C9B21B6818472DE9F04772
:100A6000ADF5105D84B00F4600EB81210125002318
:100A700001F5E2518046CDF80054CDF80434083138
:100A800093420DDA51F8230001330028F8D00DF518
:100A9000806444F8350004EBC50001354360EFE79E
:100AA0000DF5A05610364FF480523046002108F064
:100AB00017FA0022AA4225D00DF5806353F8323090
:100AC000D8B2013256F82010013146F82010C3F395
:100AD000072101F5807156F82100013046F8210008
:100AE000C3F3074101F500711B0E56F821000130D8
:100AF00046F8210003F5407356F82310013146F8FB
:100B00002310D7E7D6F8003C9D420CD1D6F8003828
:100B10009D420BD1D6F800349D420CBF4FF0010E20
:100B20004FF0020E04E04FF0040E01E04FF0030E10
:100B30000DF608440DF580634FF0000C002206EB23
:100B40008C2910464DF8220059F822100132B2F5D6
:100B5000807F0844F6D14FEACC0A4FF00009A9453E
:100B600013D053F8392022FA0AF2D2B25DF82210DB
:100B7000481C4DF8220004EBC10203EBC90103C974
:100B800009F1010982E80300E9E70CF1010CF445E1
:100B900003D01A4623461446D0E7012D01D1256023
:100BA00078E02268A368134423604FF0020E01230B
:100BB000002205F1FF3C634535DAAE4505DA54F80D
:100BC0003E0054F83210814207D2D00054F832105F
:100BD00044F833100132235003E044F833000EF19F
:100BE000010EAE4507DA9A4212DA54F8320054F890
:100BF0003E1088420CD254F8321054F833004FEAB9
:100C0000C20C014444F83310013244F80C3008E0BF
:100C100054F83E1054F83300014444F833100EF1F8
:100C2000010E0133C5E705F10053023B002244F8F1
:100C30003320EB1E581C08D054F8332054F83220CF
:100C4000013244F83320013BF4E7A5F1020E012301
:100C500000207246511CC2EB0E0905D054F8321028
:100C6000814201D1013AF5E7C3EB0C0E9A4604EB41
:100C7000CE0ECAEB0C014B45194403DD4EF8330090
:100C8000013BF6E75FEA49038C4600F1010001D021
:100C90009646DEE730460021842208F021F9002341
:100CA00054F8331056F8212001330132AB4246F894
:100CB0002120F5D1012D0FD14FEA071909EB070AC1
:100CC00008EB0A0000F5C05004300021112208F0A2
:100CD00007F9C24401232EE0112356F82320316C7A
:100CE00001330A44212B3264F7D10022102356F835
:100CF0002310C3F110008140013B0A44F7D1B2F543
:100D0000803FD9D0336C0DF5A250013B33640C30D9
:100D10000F23864650F8041949B101390133CEF842
:100D2000001056F82310023146F8231001E0013B71
:100D3000EFD1013AE3E703F5C05156F8232004311F
:100D40000133112B0AF80120F5D1102303F5C0520D
:100D500004321AF802203AB1B944C1444B4403F5B5
:100D6000C053013A1A7101E0013BEFD108EB0727AC
:100D700007F5C25704EBC5050737083DA54204D067
:100D80006B68013B07F8013FF7E70DF5105D04B014
:100D9000BDE8F08713B543F265430446C05C8DF8A7
:100DA000071028B120680DF10701012203F09EFA17
:100DB00043F26543E05402B010BD38B505460C4619
:100DC000C1F30721FFF7E6FF2846E1B2BDE838404E
:100DD000FFF7E0BF38B505460C46FF21FFF7DAFF05
:100DE0002846E1B2BDE83840FFF7D4BF10B5E02196
:100DF0000446FFF7EFFF20461021FFF7DEFF2046F5
:100E00004A21FFF7C7FF20464621FFF7C3FF2046D0
:100E10004921FFF7BFFF20464621FFF7BBFF2046D1
:100E20000021FFF7B7FF20460121FFF7B3FF20465F
:100E30000121FFF7AFFF20460021FFF7ABFF20465F
:100E40000121FFF7BAFF20460121FFF7B6FF204638
:100E50000021FFF79FFF20460021BDE81040FFF76B
:100E600099BFF8B504460025237B032B0CBF022352
:100E700001239D421ADA2046DB21FFF7ABFF204613
:100E80004321FFF79AFF2046E9B2FFF783FF2F02C5
:100E90000026F3192344204693F804120436FFF782
:100EA00079FFB6F5807FF4D10135DDE7F8BDF8B5FF
:100EB0000446C021FFF78EFF237B0825032101FB99
:100EC00003512046FFF779FF29462046FFF762FFCE
:100ED0002046A169FFF771FF20466169FFF76DFFAA
:100EE0002046217BFFF756FF04F10C060025237BEB
:100EF0009D4216DA6F1C2046F9B2FFF74BFF16F839
:100F0000011FF37803EB0111C9B22046FFF742FF3E
:100F1000002D2046D4BF00210121FFF73BFF3D46B5
:100F2000E5E7F8BD2DE9F8430C46C421984607468D
:100F3000164604F11009FFF74DFF0025234613F86C
:100F4000012F4B451544FAD1384605F11301FFF73F
:100F500034FF9DF8201008EB01113846C9B2FFF7A5
:100F600019FF14F8011F3846FFF714FF4C45F8D15C
:100F700034463544AC4205D0384614F8011BFFF71F
:100F800009FFF7E7BDE8F88373B500F5C252002604
:100F900000F5C05104460431083233460096FFF78D
:100FA000C1FF012504F5C15104F5D2523346009525
:100FB000204606310832FFF7B5FF237B032B15D1FE
:100FC00004F5C05104F5CA522046153108322B46AB
:100FD0000096FFF7A7FF04F5C15104F5DA5200951A
:100FE0002046173108322B46FFF79CFF02B070BD38
:100FF00070B50446DA21FFF7EDFE217B0331204670
:101000004900FFF7DAFE2046217BFFF7C3FE0025EB
:10101000237B9D420DDA6E1C2046F1B2FFF7BAFE2B
:1010200020460DB9294600E01121FFF7B3FE3546F1
:10103000EEE720460021FFF7ADFE20463F21FFF7F7
:10104000A9FE20460021BDE87040FFF7A3BE10B501
:10105000D8210446FFF7BEFE2046FFF7C7FE204614
:10106000FFF7FFFE2046FFF722FF2046FFF78CFF29
:101070002046BDE81040FFF7BBBFF0B51646ADF205
:101080000C5D0F46002501229C5C0121A14205DC7C
:1010900048196844013100F8012CF7E70132112AA0
:1010A0002544F1D100230DF805309DF800E01946E4
:1010B0001DF80340A4B141AA5C1A02EB84040A465D
:1010C000581A00EB020C6844805C704503D144F868
:1010D00022200132F4E7634651000EF1010EE7E7EA
:1010E00021464FF48062384607F0FAFE214630462A
:1010F0004FF4807207F0F4FEDDF820352146013B05
:10110000A9420CD041A813F8012F50F8210047F84C
:1011100022001A781DF80100B0540131F0E70DF2F9
:101120000C5DF0BD4368312BC8BFC3F1640330B51B
:10113000C8BF58004FF00004DCBF41F2883090FB7C
:10114000F3F032F9143043433233642593FBF5F363
:10115000FE2B03DC012BB8BF012300E0FF2341F885
:1011600024300134402CECD130BD38B543F25C431F
:101170000025C55043F260430446C55000F5315088
:101180000C220830294607F0ABFE43F264430122EB
:1011900084F88050E25438BD13B500F5C2530833CB
:1011A00000F5A052009300F5C053044600F204413C
:1011B00004320433FFF761FF04F5D2530833009380
:1011C00004F5B05204F5C1530633204604F6044139
:1011D0000432FFF752FF237B012B1ED904F5CA53BB
:1011E0000833009304F5A85204F5C053204604F6D2
:1011F000040104321533FFF740FF04F5DA530833D6
:10120000009304F5805104F5B85204F5C15320460B
:10121000043104321733FFF730FF2046FFF7A5FFF4
:101220002046FFF714FF43F2644302220120E254F8
:1012300002B010BD38B5044603202073022060734D
:1012400020740120A0736074E073A07403FB01F0AC
:10125000206201F10F006161A261E36101EB4101D4
:1012600020F00F030F321025636222F00F02E162BB
:1012700003EB430193FBF5F363632346A2624F4AFA
:10128000A563E563216343F8402F04F17C001A68ED
:101290000A4443F8042F8342F9D1204604F5017132
:1012A000474AFFF73FFF474B657A454A2046002DE6
:1012B00008BF1A4604F54171FFF734FF43F2584363
:1012C0004FF40062E25004F5315343F254421433B8
:1012D000A350A37A5BB104F5E25000214FF4805291
:1012E000083007F0FDFD2046FFF73FFF61E0364A7A
:1012F00004F5C053043302F1100152F8040B43F813
:10130000040B8A42F9D1314912781A7041F648002B
:1013100004F5C2520B6823504B68D3608B6813618D
:101320002B4A04F5C153063302F1100152F8040BA5
:1013300043F8040B8A42F9D112781A7004F5D2509E
:1013400024494FF48072083007F030FD224A04F53A
:10135000C053153302F1100152F8040B43F8040B8B
:101360008A42F9D11D4912781A7041F6481004F5E5
:10137000CA520B6823504B68D3608B681361184ABC
:1013800004F5C153173302F1100152F8040B43F86E
:10139000040B8A42F9D112781A7004F5DA50083039
:1013A00010494FF4807207F001FD2046FFF7F4FE6C
:1013B00010B143F26543E05C38BD00BF8F91FF1F61
:1013C0002487FF1FA487FF1F7197000082970000EA
:1013D00060970000609600009A9700008E970000CA
:1013E0004F9600003698000030B500F1A40300F1DC
:1013F0003C05C90000F5D27055F8044F6218645CD2
:10140000803C43F8204C5478803C43F81C4C947842
:10141000803C43F8184CD478803C43F8144C147941
:10142000803C43F8104C5479803C43F80C4C947940
:10143000803C43F8084CD279803A43F8042C20339E
:101440008342D9D130BD00EB421230B5182404FBE1
:1014500001333C3200F1A40400F5D27052F8041FAD
:10146000CD18C95C803944F8201CE978803944F8EB
:101470001C1CA979803944F8181C697A803944F811
:10148000141C297B803944F8101CE97B803944F80E
:101490000C1CA97C803944F8081C697D803944F80B
:1014A000041C20348442D9D130BD30232DE9F041D1
:1014B00003FB012200F1A40500F5D27102274FF0D1
:1014C000000E066CD0F844C016F80280B4180CEB7D
:1014D0000203E6781CF802C04644664493F803C051
:1014E00066447644B610803E45F8206C94F806C0F9
:1014F000667A664493F806C0664493F809C0664469
:101500003E44B610803E45F81C6C94F80CC0E67B57
:10151000664493F80CC0664493F80FC06644764462
:10152000B610803E45F8186C94F812C0667D66448B
:1015300093F812C0664493F815C066443E44B61052
:10154000803E45F8146C94F818C0E67E664493F823
:1015500018C0664493F81BC066447644B610803EBB
:1015600045F8106C94F81EC094F82160664493F816
:101570001EC0664493F821C066443E44B610803EC7
:1015800045F80C6C94F824C094F82760664493F8EE
:1015900024C0664493F827C066447644B610803E63
:1015A00045F8086C94F82A6094F82D40264493F886
:1015B0002A40264493F82D4033193B449B10803B2E
:1015C00045F8043C20358D423B4600F10800774643
:1015D00001D09E4675E7BDE8F081302370B503FB6E
:1015E000012200F1A40400F13C0100F5D27051F891
:1015F000045FAB18AE5CDD7835446D10803D44F877
:10160000205C9E795D7A35446D10803D44F81C5C09
:101610001E7BDD7B35446D10803D44F8185C9E7C5C
:101620005D7D35446D10803D44F8145C1E7EDD7E8A
:1016300035446D10803D44F8105C9E7F93F8215036
:1016400035446D10803D44F80C5C93F8246093F8A9
:10165000275035446D10803D44F8085C93F82A50BB
:1016600093F82D302B445B10803B44F8043C20342D
:101670008442BCD170BDFFFF0029CCBF4FF4407144
:101680004FF40071014430B5043100F5C3720025F8
:10169000104B51F82540EB5C00EB8303D3F884300A
:1016A000002B07DAC3EB6403A34207DB93FBF4F3DD
:1016B0005B4207E003EB6403A34201DA002301E08D
:1016C00093FBF4F30135402D22F8023C02F10202B3
:1016D000DED130BDF697000038B543F2584300F52F
:1016E0003155C258B2F5006F044605F114050CD00F
:1016F00043F26543C05C28B120682946C2F5006208
:1017000002F0F4FD43F26543E05443F254434FF4D6
:101710000062E55043F25843E25038BD2DE9F843EA
:10172000044643F2604023581A44225043F25C407E
:10173000C2F11802235891400B43235004F551572E
:1017400020373B68072B2FD904F55156143604F582
:101750005158336898F81E9008F11C0804F551554B
:101760005A1C1835326083F800902B68013B2B60BF
:1017700013B92046FFF7B0FFB9F1FF0F0BD1336863
:101780005A1C326000221A702B68013B2B6013B97F
:101790002046FFF7A1FFD8F800301B02C8F8003040
:1017A0003B68083B3B60C9E7BDE8F883022970B598
:1017B0004FDC29B100F50154083400F5215204E052
:1017C00000F5E254083400F5115200EB810142F6B5
:1017D0004845B0F984614B594E51F31A002B02F180
:1017E0000802B8BF5B42002113B101315B10FBE777
:1017F00054F82150013544F8215000F5C27400F22C
:10180000022034F9026F0EB1194601E001331AE0EB
:101810000F2906DDD2F8C0530135C2F8C053103984
:10182000F6E703F00F0586EAE673A3EBE673012102
:101830005B1001D00131FBE701EB051152F821509B
:10184000013542F821508442DBD113B113680133D2
:10185000136070BD2DE9F74F044649B900F5A05259
:1018600000F2044E00F60447043200F5B05809E0D7
:1018700000F5805700F5A85200F6040E0437043234
:1018800000F5B85842F6484504EB8101B4F98431BB
:1018900048594B511B1A48BF03F1FF3608F10408A1
:1018A0004CBF5B421E46002513B101355B10FBE7C0
:1018B00020465EF82510525DFFF730FF3DB1012153
:1018C000A9400139204631402A46FFF727FF04F599
:1018D000C27B04F2022900253BF9026F0EB1AA4631
:1018E00001E0013531E0BAF10F0F09DD2046D7F8EC
:1018F000C01398F8F020FFF711FFAAF1100AF2E7E1
:10190000002EB8BF06F1FF3305F00F05B4BF7642D5
:1019100033464FF0010A761002D00AF1010AFAE7C5
:101920000AEB0515204657F8251018F805200193F5
:10193000FFF7F4FE0121019B01FA0AF1013920466B
:1019400019405246FFF7EAFE3546CB45C4D145B1B2
:10195000396898F80020204603B0BDE8F04FFFF743
:10196000DDBE03B0BDE8F08F2DE9F04F8BB002462D
:1019700002910346A43200F5D2710190843306929D
:10198000099112E9031052F8148C52F820BC52F855
:101990001C4C52F818EC52F8105C0BEB0C07CCEB1B
:1019A0000B0B04EB010C641A0EEB0001C0EB0E0EE6
:1019B00008EB05003E18C5EB08053F1A0CEB0100CB
:1019C000C1EB0C0105EB040A0EEB0B0907EB010C54
:1019D00009EB0A0805911FFA8CF141F2511C11FB29
:1019E0000CFC1FFA88F142F2A15811FB08F8A9B2C9
:1019F00007911FFA8EF1049008911FFA8BF0A1B2A3
:101A00005D4474444EF2333B4AF6FD5E15FB0BF524
:101A100014FB0EF44CF23B1B4FF2843E1AFB0B8A74
:101A2000039619FB0E88B646049EB6444FEA8E0E06
:101A300042F820EC43F20B0E10FB0E50404400F530
:101A40008060C01242F81C0C3FB241F67E0007FBDA
:101A500000C746F2542011FB0041514401F580615A
:101A6000C91242F8141C0399BDF81400891B89009F
:101A700042F8101CBDF8201044F2B31E11FB0E44B6
:101A80004CF2DF4110FB01C101F58061C91242F83F
:101A9000081CBDF81C1040F68E1B11FB0B5544446E
:101AA000554407F5806704F5806405F58065FF12ED
:101AB000E412ED12099942F8187C42F80C4C42F8F5
:101AC000045C20328A427FF45CAFD3F88000D3F804
:101AD000A070D3F8C020D3F8E0101D681C6AD3F8BA
:101AE00040E0D3F860C005EB01086D1AA118A41AF4
:101AF0000EEB0702C7EB0E0E0CEB000701EB020921
:101B0000C0EB0C0C8A1A08EB0700C7EB0807B918E2
:101B10000CEB040B0EEB050A41F2511889B211FBD4
:101B200008F10AEB0B0803911FFA88F142F2A15861
:101B300011FB08F81FFA8CF104911FFA8EF1059140
:101B4000A1B207917444A9B24AF6FD5E65444EF213
:101B5000333C15FB0CF514FB0EF44CF23B1C4FF21E
:101B6000843E1BFB0C8B1AFB0E8800EB090E0EF15A
:101B7000100E4FEA6E1EC3F800E043F20B0E11FB8D
:101B80000E51414401F500318914039E19623FB2A0
:101B900041F67E0107FB0167BDF81C6046F2542147
:101BA00016FB0141594401F50031C9EB00008914CD
:101BB000103019664011BDF81410C3F8800044F2CB
:101BC000B31E039811FB0E444CF2DF4112FB0102DD
:101BD00002F500329214C3F8C020BDF8102040F680
:101BE0008E1C12FB0C5544445D4407F5003704F588
:101BF000003405F50035BF14A414AD14069A1F6413
:101C0000C3F8A040C3F8E050043393427FF45DAFC3
:101C100001980299FFF730FD43F26443019AD35CC7
:101C2000012B06D1029910460BB0BDE8F04FFFF72B
:101C3000BDBD019802990BB0BDE8F04FFFF70ABE99
:101C4000F8B5037B012B04460ED10025636B9D4242
:101C500009DA29462046FFF7C7FB20460021FFF797
:101C600083FE0135F2E7F8BD437B012B28D1037CCD
:101C7000012B40F09C800025636B9D421FDA0022FF
:101C8000134629462046FFF7DEFB20460021FFF7DA
:101C90006BFE2946002201232046FFF7D4FB204695
:101CA0000121FFF761FE2946204600220223FFF7AB
:101CB000CAFB20460221FFF757FE0135DCE7F8BDDD
:101CC000022B74D1037C012B2DD10025636B9D4227
:101CD00028DA00226E00134620463146FFF7B3FB98
:101CE00020460021FFF740FE002213462046711CCB
:101CF000FFF7A9FB20460021FFF736FE2946012207
:101D00002046FFF76AFC20460121FFF72DFE2946F9
:101D100020460222FFF761FC20460221FFF724FE45
:101D20000135D3E7F8BD022B41D10025636B9D42FD
:101D30003DDA6E000022134620463146FFF783FB52
:101D400020460021FFF710FE771C00221346204694
:101D50003946FFF778FB20460021FFF705FE0122F8
:101D6000002320463146FFF76EFB20460021FFF797
:101D7000FBFD0023012220463946FFF764FB204685
:101D80000021FFF7F1FD294601222046FFF78DFBD8
:101D900020460121FFF7E8FD294620460222FFF7F1
:101DA00084FB20460221FFF7DFFD0135BEE7F8BDC9
:101DB00010B5002104460C22FEF750FE20460221F9
:101DC0004FF48072FEF74AFE237B012B0AD920468E
:101DD00001210C22FEF742FE204603214FF48072BF
:101DE000FEF73CFE2046BDE81040FFF7D5B910B520
:101DF000072204467F21FFF791FC2046FFF76CFC89
:101E00002046D921FEF7E6FF43F264420120A35C9D
:101E10000133A35410BD38B590F880500446ADB1DD
:101E20000F2D03D92046FFF70BFF0FE0E36B9D4218
:101E3000F8DA94F8803004EB85020F33106C54F814
:101E40002310226B06F0B2FF0135EFE743F2644343
:101E50002046E35C012B03D1BDE83840FFF7A8BF63
:101E6000BDE83840FFF7C3BFF8B590F8803042694D
:101E70001033044650F823505008062200FB02227B
:101E80002B462A440633934201F1040111D011F884
:101E9000040C03F8060C11F8020C03F8030C802064
:101EA00003F8010C03F8020C03F8040C03F8050C0A
:101EB000E8E7237B94F880106269012BE36A0BD179
:101EC00010311D4454F82100666A15F8011C1844AD
:101ED000B21A07F005F817E010311D4454F821003C
:101EE00015F8036C15F8027C15F8015C1844636A58
:101EF0009A4200F1030007DA00F8036C00F8027C54
:101F000000F8015C0132F2E794F88030E26B0133B3
:101F1000DBB2934284F8803005D12046FFF790FE73
:101F2000002384F88030F8BD5522426043F26441BA
:101F3000032202720022427282720264425443F20D
:101F40006542012181547047F0B543F26447002592
:101F50000564C55543F2654501271646069C47555D
:101F60001A46059BE9B1002E1BDD002A19DDBB4294
:101F700002D0DD1EBD4214D82568013D632D10D866
:101F80002579032D0DD8054645F8041B21684160CD
:101F9000A188A980A179A9713146BDE8F040FFF779
:101FA00049B90020F0BD10B543F264430446C35C58
:101FB000013B012B01D9002010BD43F26543C35CF6
:101FC00033B119B9FFF727FF10B9F4E7FFF74CFF5A
:101FD00043F26543E05C10BDF0B5ADF5515D8FB0E7
:101FE00004AD074602F044FA2846FFF79DFF55224C
:101FF000029203228DF80C2002AB01228DE80C0026
:102000000026284639464FF4B0724FF490738DF88D
:102010000D608DF80E60FFF797FF044688B91B210D
:102020003448FEF717FD34493248FEF705FD3148C4
:10203000324927E03046013600F020FCB6F5907FAB
:102040002CD0304600F04AFB01462846FFF7ABFF94
:1020500004460028EED143F264430122E85443F2DF
:1020600065432864EA5400F0F5FC384602F018F99C
:102070001B212048FEF7EEFC1F491E48FEF7DCFC42
:102080001C481F49FEF7D8FC1B211A48FEF7E2FC4A
:1020900018481C49FEF7D0FC204627E028460021BE
:1020A000FFF781FF43F264430446A8B9E85443F2C2
:1020B0006543012228643846EA5402F0F1F800F042
:1020C000C9FC1B210B48FEF7C5FC0B490948FEF76C
:1020D000B3FC08480C49D5E70022EA5443F26543B3
:1020E0002A6438460122EA5402F0C0F90DF5515D28
:1020F0000FB0F0BD5C360020AB970000B097000039
:10210000CA970000C6970000E097000010B504468B
:1021100005F076FA204610BD064B10B5541E9C42C1
:1021200006D830235A43013ABDE8104005F052BAB0
:10213000002010BD545555050F4A08B500231370F3
:102140000E4A21200121137003F034FA01211F20CF
:1021500003F030FA0A490B4B0978E0225A7329B18F
:102160001B7B03F1604303F564431A700649074A79
:102170000448FFF7D1FF08BDA4D3FF1F8FD3FF1F73
:102180002C36002090D3FF1F1122000090D00300B6
:1021900010B504460B4805F033FA212C02D1002279
:1021A000094B03E01F2C02D1084B00221A70204675
:1021B000012103F0D1F90649064A0248FFF7ACFFB6
:1021C00010BD00BF90D3FF1FA4D3FF1F8FD3FF1FED
:1021D0001122000090D0030038B50A4C0546204675
:1021E00005F00EFA284603F0D7F9B0FA80F1284638
:1021F000490903F0B1F920460349044AFFF78CFF6F
:1022000038BD00BF90D3FF1F1122000090D0030003
:1022100008B5074B1B7813B11F20FFF7DDFF054BF7
:102220001B7823B12120BDE80840FFF7D5BF08BDCA
:102230008FD3FF1FA4D3FF1F10B504460B4805F032
:10224000DFF9212C02D10022094B03E01F2C02D11F
:10225000084B00221A702046002103F07DF9064940
:10226000064A0248FFF758FF10BD00BF90D3FF1F7A
:10227000A4D3FF1F8FD3FF1F1122000090D00300B3
:1022800010B504460A4805F0BBF92046FFF7D4FF15
:10229000212C02D10122074B03E01F2C02D1064B57
:1022A00001221A700549064A0148FFF735FF10BDA3
:1022B00090D3FF1FA4D3FF1F8FD3FF1F1122000055
:1022C00090D0030004480549054A00230370802389
:1022D000437306F091BA00BF90D3FF1F0D21000099
:1022E0002087FF1F08B501F089F901F0A5F905F075
:1022F000AFFAFAE7044B05491A79054B04201A7026
:10230000022203F049B800BFE02C0020952B00000A
:102310001B80004010B5044604F04CFF204610BD61
:1023200008B50021122003F017F9012003F054FA38
:102330000121132003F010F9012003F04DFA1220BF
:10234000012103F009F90120BDE8084003F044BA77
:1023500008B5FEF717FB08BD0A22002305F08AB96D
:1023600038B5054605F0C1F90446284605F072F96E
:10237000204438BD38B50D4608242B064CBF01213A
:102380000021122003F0E8F8012003F025FA0121D2
:10239000132003F0E1F8012003F01EFA13200021BE
:1023A00003F0DAF8013C01206D0003F015FA14F097
:1023B000FF04EDB2E1D12146122003F0FBF8012029
:1023C00003F00AFA0121132003F0C6F8012003F0FC
:1023D00003FA122003F0E0F821460546132003F02B
:1023E000BBF8012003F0F8F90121122003F0E2F814
:1023F000012003F0F1F9B5FA85F0400938BD37B591
:1024000005460C461320012103F0D4F812200121C7
:1024100003F0D0F80121122003F09EF8012003F010
:10242000DBF90121132003F097F8012003F0D4F920
:102430000021122003F090F8012003F0CDF90021D3
:10244000132003F089F8012003F0C6F901A8422106
:10245000FFF790FF40B101A82946FFF78BFF18B1A5
:1024600001A82146FFF786FFFFF75AFF012003B0BE
:1024700030BDFFFF0D4A0E49002313800D4A138023
:102480000D4A126892B20A800C4A13800C4900224D
:102490005A540133102BF9D113460A4AFF2199549B
:1024A0000133B3F5907FF8D1704700BFD6D4FF1F3A
:1024B000DC2C0020DA2C002080330020D82C0020D7
:1024C000C5D4FF1FA5D3FF1F10B5094B03F59070AE
:1024D00013F9012F002A07DB06498C5C012C01BF90
:1024E00000248C54FF221A708342F1D110BD00BF2A
:1024F000A4D3FF1FC5D4FF1F08B50020194BC25C31
:10250000A2B101301028F9D100201A5C012A0FD1A4
:10251000144A00231354144A9956814202D1FF21D0
:10252000D15403E00133B3F5907FF4D1C0B208BDBC
:1025300001301028E9D11B210C48FEF78BFA0C4919
:102540000A48FEF779FA0B490848FEF775FA1B218D
:102550000648FEF77FFA08490448FEF76DFA0020A6
:1025600008BD00BFC5D4FF1FA5D3FF1F5C360020E8
:10257000AB97000036990000C697000013B5FFF72F
:1025800079FF0420002103F015F81120002103F049
:1025900011F80320012103F00DF81A20002103F0A7
:1025A00009F80220002103F005F80E20002103F0B5
:1025B00001F80720002102F0FDFF0820002102F0B1
:1025C000F9FF0620002102F0F5FF1420002102F09F
:1025D000F1FF1520002102F0EDFF0520002102F09F
:1025E000E9FF0320334902F051FF0320402102F0AC
:1025F000FDFF642003F0F0F800242F4B1A19185D3A
:1026000051780234FFF7FBFE122CF6D14FF4C8705C
:1026100003F0E2F8294A2A4C136823F002031360FE
:10262000284B294A1A601A6822F001021A6068468B
:10263000002104F06BFD22799DF804309A4207D006
:10264000204604F0B7FD009B23609DF80430237101
:10265000684604F0AFFD23791C4A137003F18043F0
:1026600003F504330021B52219701A7023689A8B80
:10267000988B197192B242F008029A831A68144A30
:102680001A609A685971D97122B9012119725A7266
:102690009A72DA7200221A735A739A73DA730D4AB5
:1026A0000D492A23137011209370022202F074FE48
:1026B00002B010BD0024F44A049B000014F10F4046
:1026C000E02C002004D00440000101001A800040EA
:1026D000D0F00F4057E400E05D2B0000554A2DE993
:1026E000F84383B21380544BB0F5907F05461F68C2
:1026F00090461E460AD91B215048FEF7ABF95049B7
:102700004E48FEF799F94D484E491DE04E4C63572F
:10271000002B24DB4D4AD15C01290CD002291ED1AB
:102720001B214648FEF796F945494448FEF784F9CF
:102730004248474908E00221D154464A4FF4B0606C
:1027400000FB0320BDE8F883FEF776F91B213B4828
:10275000FEF780F940493948FEF76EF967E001203D
:1027600003F03AF8336841F28832DB1B9342CDD94B
:102770001B213248FEF76EF931493048FEF75CF90B
:1027800036492E48FEF758F91B212C48FEF762F90E
:1027900031492A48FEF750F928483149FFF7D8FD5A
:1027A0004FF00009294E254816F80910FFF7D4FD0F
:1027B00009F1010921482B49FFF7CAFDB9F1100FB2
:1027C0003746EFD11D482849FFF7C2FD0026A15723
:1027D0001A4804F08AFF19482249FFF7B9FD902EE4
:1027E00003D116482149FEF7DBF80136B6F5907F94
:1027F000EDD11F491148FFF7ABFDB8F800100F48A5
:1028000089B2FFF7ADFD1B490C48FFF7A1FD6157E9
:102810000A48FFF7A5FD18490848FFF799FD6357D7
:102820000648F95CFFF798FD044804F013FF002008
:10283000BDE8F883D82C0020803300205C360020CF
:10284000AB97000062990000A5D3FF1FC5D4FF1FFE
:1028500087990000D8D4FF1FC6970000C2990000D6
:10286000F5990000059A0000079A0000129A0000EE
:10287000149A0000219A00003C9A0000B0F5907F65
:1028800070B505460AD91B213F48FEF7E3F83F49DA
:102890003D48FEF7D1F83C483D4964E03D4B1C56AD
:1028A000002C0ADA1B213848FEF7D4F8374936489D
:1028B000FEF7C2F83448384955E0384E325D022AF6
:1028C0005CD01B213048FEF7C5F830492E48FEF792
:1028D000B3F833492C48FEF7AFF81B212A48FEF71E
:1028E000B9F830492848FEF7A7F82946264804F0E9
:1028F000FCFE1B212448FEF7ADF824492248FEF7D0
:102900009BF829492048FEF797F81B211E48FEF73F
:10291000A1F824491C48FEF78FF821461A4804F014
:10292000E4FE1B211848FEF795F818491648FEF7F3
:1029300083F81E491448FEF77FF81B211248FEF762
:1029400089F818491048FEF777F8315D0E48FFF70F
:1029500003FD1B210C48FEF77DF80C490A48FEF7E1
:102960006BF809481249FEF767F81B210648FEF785
:1029700071F80C490448FEF75FF870BD002232552B
:10298000FF221A5470BD00BF5C360020AB970000D8
:102990004C9A0000A5D3FF1F729A0000C5D4FF1FF8
:1029A000939A0000C6970000A69A0000439A000080
:1029B000B19A000038B54FF49075002404F1640317
:1029C0004FF4907293FBF2F402FB14342046FFF7AD
:1029D00085FE012002F000FF2046FFF74FFF013D7A
:1029E000ECD102490248FDF7DBFF38BDDEA4000050
:1029F0005C36002010B5114C1B212046FEF72AF84A
:102A000020460F49FEF718F820460E49FEF714F845
:102A100020461B21FEF71EF80B492046FEF70CF856
:102A2000042002F0FFFC112002F0FCFC074B1A7995
:102A3000074B1A70BDE81040FFF71CBD5C36002044
:102A4000AB970000C39A0000C6970000E02C00205E
:102A50001A80004008B5FFF7CDFF1120024902227D
:102A6000BDE8084002F098BC5D2B0000344A38B540
:102A7000344B1188188889B280B20531814206DB57
:102A80001188188889B280B2013981421ADD118813
:102A900089B2012908DC2A491888098889B280B2DC
:102AA00001F58F7188420DDC128892B2B2F58D7FEC
:102AB00044DD234A1988128892B289B2A2F58D7238
:102AC00091423BDA1B881F4D9BB2B3F5907F00D338
:102AD00038BD2B881C4C9BB2E356002B2EDAFFF737
:102AE0000BFD2B889BB20322E054184B1A54184B51
:102AF0004FF4B06101FB0030164B1B681969186177
:102B000000215975997159729972D97240211976BB
:102B10006FF0020159764FF0FF319976D976D98B53
:102B20004FF43071D983012018751872D88AD98270
:102B300004200949BDE8384002F02EBC38BD00BF72
:102B4000D82C0020D6D4FF1FA5D3FF1FC5D4FF1F4C
:102B5000D8D4FF1FE02C0020F522000008B5FFF7B5
:102B6000B3FC084A138801339BB21380064B1A79D1
:102B7000064B1A70064B00221A80BDE80840FFF78A
:102B800075BF00BFDA2C0020E02C00201A80004026
:102B9000D6D4FF1F0B4B0C491A8892B28A56002AD2
:102BA00005DB0A49885C032804BF01208854084AD1
:102BB0001179084A11701A88013292B21A80FFF70F
:102BC00055BF00BFD6D4FF1FA5D3FF1FC5D4FF1F1D
:102BD000E02C00201A80004010B5064C0021204651
:102BE00004F094FA20460449044ABDE8104005F078
:102BF00003BE00BFE02C0020152300002087FF1F2C
:102C000038B50D4C0D4D23680D49182033B90322FA
:102C100002F0C2FB02F0C2FD286008E0022202F0CE
:102C2000BBFB02F0BBFD2B68C01A064B1860236883
:102C300083F00103236038BDF02C0020EC2C002031
:102C4000012C0000E82C002008B51820002102F01B
:102C5000B1FC182002490222BDE8084002F09CBBEA
:102C6000012C000010B5182002F0DCFB054B0649D2
:102C70001C6800221A601820022202F08DFB2046F8
:102C800010BD00BFE82C0020012C0000D2B20023B0
:102C900004F0F0BC10B50D4C1B212046FDF7DAFE08
:102CA00020460B49FDF76EFE20461B21FDF7D2FEA4
:102CB00020460849FDF766FE20461B21FDF7CAFEA7
:102CC00020460549FDF75EFE10BD00BF5C360020C2
:102CD000169B00001A9B00001E9B000010B5094CBB
:102CE0001B212046FDF7B6FE20460749FDF74AFEA8
:102CF00020461B21FDF7AEFE20460449FDF742FEAB
:102D000010BD00BF5C360020249B0000289B000003
:102D100008B504F0EDF80028FBD004F0E9F800282D
:102D200002DD04F0A3F8F8E708BDFFFF70B5124C10
:102D3000124E05460A2229782046FFF7A7FF3146A2
:102D40002046FDF71FFE69780A222046FFF79EFF06
:102D500031462046FDF716FEA9780A222046FFF7E5
:102D600095FF31462046FDF70DFE2046E9780A2200
:102D7000FFF78CFF70BD00BF5C360020CB9E0000CB
:102D800038B5002529460A2303FB051504F0B0F8E1
:102D90000028FBD004F06AF8C4B206480368214654
:102DA0001B689847A4F13001C9B20929EBD928461C
:102DB00038BD00BF5C36002010B50446FFF7E0FFC9
:102DC0002070FFF7DDFF6070FFF7DAFFA070FFF7FC
:102DD000D7FFE07010BD08B504F08AF8002802DDC6
:102DE00004F044F8F8E708BD9DF80010009104F0E5
:102DF00087BC38B50546FDF7C5FD0446284604F0F6
:102E000029FC204438BDFFFF08B504F071F820B15B
:102E1000024B1A780AB105221A7008BDF82C00205E
:102E200008B5064B1860064B0020042201461A70B4
:102E3000FDF746FCBDE8084001F038B9FC2C002045
:102E4000F82C002038B52C4D2C492D48FFF7D1FF28
:102E5000287900F0BBFF041E01DD2A4826E003D0DC
:102E600027482949FFF7C5FF28492548FFF7C1FF33
:102E7000274801F001F8041E01DD264816E003D0C2
:102E80001F482549FFF7B5FF24491D48FDF7D4FD2C
:102E90001948FFF74BFF22491948FFF7AAFF1648C8
:102EA000E98801F033F8041E04DD1E48FFF7B8FF7F
:102EB000204638BD03D012481B49FFF79AFF1B4B31
:102EC0001D681C4601F022F928B1642002F084FC40
:102ED00001F0AAF828B916490948FFF78AFF00202F
:102EE00038BD236842F210725B1B9342EAD9114845
:102EF000FFF796FF012038BD1C2D00202B9B000002
:102F00005C3600203E9B0000559B0000759B000036
:102F1000919B0000999B0000AE9B0000CC9B0000A1
:102F2000DEA40000F29B00000B9C00008033002018
:102F30002D9C00003E9C00002DE9FF41FFF74BFF58
:102F4000FFF7CCFEAC49AD48FFF753FFAC49AB48A7
:102F5000FFF74FFFAB49A948FFF74BFFAA49A74826
:102F6000FFF747FFA949A548FFF743FFA849A34832
:102F7000FFF73FFFA749A148FFF73BFFA6499F483E
:102F8000FFF737FFA5499D48FFF733FFA4499B484A
:102F9000FFF72FFFA3499948FFF72BFFA249974856
:102FA000FFF727FFA1499548FFF723FFA049934862
:102FB000FFF71FFF9F499148FFF71BFFFFF7E0FE58
:102FC00001380D28BCD8DFE810F09100B0000901ED
:102FD0005D01A201F50103022002290234028402EC
:102FE0008E004D000E00FFF779FEFFF7F4FE9249C8
:102FF0008248FFF7FEFE91498048FFF7FAFEFFF78F
:1030000087FE00252C46FFF72DFE064656B9FFF732
:1030100029FE0646642002F0DFFB03F069FF00286A
:10302000F4DD642531460A220023744804F022FBB3
:103030000135724804F00EFB632D3444E3DD804D0E
:1030400080496E48642394FBF3F4643CAC81FDF743
:10305000F3FC2146694804F048FB684804F0FAFA9A
:10306000284635E0FFF7B7FE74496448744CFFF713
:10307000C0FEFFF74DFEFFF7AEFE0020FDF7AEFBF2
:103080006E4906465D48FFF7B4FEFFF741FEFFF7C5
:10309000A2FE0120FDF7A2FB5FFA86F8C7B2054643
:1030A00039464046FDF7D2FB6749544884F80A8008
:1030B000E772FDF7C1FC3146504804F016FB634946
:1030C0004E48FDF7B9FC4D482946FFF749F920461F
:1030D000FDF7C6FBFFF77FFE58494848FFF789FE1A
:1030E000FFF716FE2CE7FFF776FE97E1FFF773FE7A
:1030F00057494248FFF77DFE56494048FDF79CFC82
:103100004F48FFF713FE54493C48FDF795FC4C48E7
:10311000FFF752FE51493948FDF78EFC4848FFF74A
:1031200005FE4748FDF79CFBD0E14D493348FFF7CA
:1031300060FE4C493148FFF75CFE4FF47A7002F0B4
:103140004BFB49492D48FFF754FE4FF47A7002F0CB
:1031500043FB46492948FFF74CFE4FF47A7002F0D2
:103160003BFB26484249FFF744FE6FF0630460B220
:103170000021FDF7A5FA0134142002F02DFB642C88
:10318000F5D11E483B49FFF734FE6FF0630461B28E
:103190000020FDF795FA0134142002F01DFB642C89
:1031A000F5D116483449FFF724FE6FF0630460B28E
:1031B0000146FDF785FA0134142002F00DFB642C62
:1031C000F5D12E490D48FFF714FE00200146FDF70A
:1031D00077FAFDF767FA0948294921E1FFF7FBFD76
:1031E000FFF7CCF903F084FE10B9FFF7E3FBF9E732
:1031F000FFF7F1FD16E100BF519C00005C36002096
:10320000699C0000769C0000889C00009B9C00004C
:10321000AC9C0000BF9C0000D19C0000EB9C000017
:10322000F39C0000099D00001F9D0000339D0000DD
:103230004E9D00006D9D0000839D00009F9D00003D
:103240001C2D0020BA9D0000D09D0000DC9D0000D8
:10325000DEA40000139E0000649F00002F9E00006B
:103260003B9E000053A4000050A400004DA40000A9
:103270004F9E0000669E00007E9E0000959E00000E
:103280009A9E0000FFF7DEFD58B1A649A648FFF759
:10329000B0FDA548A549FFF7ACFD40F6B83002F0F7
:1032A0009BFAA349A048FFF7A4FD00F085FFA149C0
:1032B0009D48FFF79EFD4FF47A7002F08DFA0124CD
:1032C0009D499948FDF7B8FB2146974804F00DFA4F
:1032D0009A499548FDF7B0FB20460A2100F020FFEF
:1032E00004F028FF011E06DA4FF47A7002F074FA37
:1032F0008D48934994E08C4804F0F7F964008A48BB
:103300009049FFF776FDB4F5FA6FD9DBECE7FFF7EC
:1033100062FD85488C49FFF76CFD03F0E9FD054629
:1033200000287FD1FFF7B6FC88497F48FDF784FB72
:10333000FDF7C2F8022402460B4600947A48FFF7D4
:1033400053FD83497848FDF777FBFDF71BF900949F
:1033500002460B467448FFF747FD7E497248FDF769
:103360006BFBFDF783F8009402460B466E48FFF7AF
:103370003BFD79496C48FDF75FFBFDF789F8009448
:1033800002460B466848FFF72FFD74496648FDF773
:1033900053FBFFF767FC0A2201462B46624804F004
:1033A00069F969496048FFF724FD4FF4967002F00F
:1033B00013FAB2E76A495C48FFF71BFDFFF7E0FC30
:1033C000684B18711846FDF74BFA00F06FFE29E0C4
:1033D00065495548634CFFF70CFDFFF7D1FC634985
:1033E00020725148FFF705FDFFF7CAFC60722046C6
:1033F000FDF736FA207A617AFDF7E6F95C494A482A
:10340000FFF7F7FCFFF784FC03E047485949FFF753
:10341000F0FCFFF7E0FC04B0BDE8F08142485649FB
:10342000FFF7E7FC52494048FFF7E3FCFFF770FC69
:1034300084E5FFF7D0FC514B1E681C4606E0294688
:1034400004F053F938484E49FFF7D3FC03F050FD20
:103450000028E7D138493448FDF7EEFA4FF4AF6160
:10346000314804F042F935492F48FDF7E5FA4FF4A9
:10347000AF601421276800F053FE04F05BFE051EC8
:103480002948DCDA3F49FFF7B4FC3F492648FFF7FB
:10349000B0FC3E492448FDF7CFFA6942224804F0C7
:1034A00024F9214804F0D6F800F0BEFD38491E4842
:1034B000FDF7C2FAB91B1C4804F017F935491A4840
:1034C000FFF797FC18483449FFF793FC16482D493D
:1034D000A6E7FFF780FC02A800F0FCFE03F008FD61
:1034E00098B9642005F0C0F942210446642205F031
:1034F000F7FC2146642202A800F0F8FE204605F001
:10350000BBF90A2002F068F9E8E719490648FFF715
:1035100070FCFFF7FDFBFFF75EFC02A800F0B8FEB1
:103520000EE500BF9F9E00005C360020B79E0000A5
:10353000CD9E0000E89E0000029F00000D9F00004D
:10354000169F00002F9F0000489F0000359F00003D
:103550003C9F0000439F00004A9F0000519F0000D5
:10356000589F00001C2D0020679F00008C9F0000CA
:103570009F9D0000B29F0000EA9D00008033002064
:10358000F49F0000DEA40000BD9F0000C99F000062
:10359000D59F0000E79F0000EA9F00001FB500F0E4
:1035A000B5FDE8B901A8FDF793F92120FEF7F0FD7C
:1035B00001A80C2100F0E0FC044621206CB1FEF7CC
:1035C0003BFE0A490A48FDF737FA21460848FEF74C
:1035D000C7FE00F029FD074803E0FEF72DFE02E0DC
:1035E0000548FFF71DFC04B010BD00BFFC9F0000A4
:1035F0005C3600200EA0000019A0000010B5FEF7F8
:103600009BFD094C2120FEF7C3FD1F20FEF738FE6D
:103610002046064904F0ECF8054B064900222046F6
:103620001A70FFF7E6FB10BD5C360020809698000C
:10363000F82C002028A000002DE9F74FB84C237883
:10364000072B00F2F481DFE813F008004D0068005A
:103650008400AF01E80136005B002120FEF7ECFD9D
:103660001F20FEF70DFEFCF7CDFFAE49AE48FDF77B
:10367000E3F9FCF721FF022502460B460095AA4814
:10368000FFF7B2FBA949A848FDF7D6F9A849A64813
:10369000FDF7D2F9FCF776FF00950B460246A248EB
:1036A000FFF7A2FBA349A048FFF7A3FBA248FDF741
:1036B000E9F80623BAE12120FEF7BEFD9E4D1F204A
:1036C000FEF7DEFD9D499848FFF793FBFCF7ACFF42
:1036D000287A697AFDF778F8A87AE97AFDF7B6F8DA
:1036E0000123A3E12120FEF7A7FD1F20FEF7C8FD5F
:1036F00093498D48FFF77DFBFFF7A6FA072395E175
:103700002120FEF799FD1F20FEF7BAFD8D4986485E
:10371000FFF76FFBFEF732FF7DE12120FEF78CFD06
:103720001F20FEF7ADFD88497F48FFF762FBFFF7DA
:1037300089FB002840F07B8184497B48FFF759FBD7
:1037400079488349FFF755FB032323704FF4FA7040
:10375000E1E01F20FEF71CFD2120FEF76DFD092092
:1037600001F01AFF08B900F0D3F9FDF705F9044696
:10377000002800F0BB80774C774D236813F0010FD1
:1037800009D1204601F094FC28B1744B2A681A60D4
:10379000204601F092FC724C724F236813F0010F27
:1037A00008D1204601F084FC20B12B683B60204604
:1037B00001F083FC6C4E3A683368674C0133336028
:1037C0002B686A4D9B1AB3F57A7F70D9FFF762FABE
:1037D00067495548FDF730F9604BD4F80080D3F8BD
:1037E00000A033684FF47A70584304F0A3F90646FA
:1037F000CAEB08000F4604F08DF902460B4630462E
:10380000394604F027FB06462868D4F800B0C0000B
:103810000F4604F08FF98046CAEB0B00894604F08E
:1038200079F902460B464046494604F013FB4FF037
:10383000020A32463B468046CDF800A03A48894607
:10384000FFF7D2FA4B493848FDF7F6F800224A4B09
:103850003046394604F0D4F90022484B04F0FAFA15
:10386000CDF800A002460B462F48FFF7BDFA4449A9
:103870002D48FDF7E1F843492B48FDF7DDF84246B6
:103880004B46CDF800A02848FFF7AEFA3C49264841
:10389000FDF7D2F83C492448FDF7CEF800F006FACF
:1038A00001462148FEF75CFD2E4B22681A60374C1A
:1038B0002368DB070ED4204601F0FAFB50B13448F0
:1038C00000F008FD204601F0F8FB31483149324A4A
:1038D00004F092FF2E48FEF77FFB044610B92F48F4
:1038E000FFF79EFA2B681C442C60A0E0FFF7D2F98A
:1038F0002B490D48FDF7A0F82A490B48FDF79CF825
:1039000000F0D4F901460848FEF72AFD204621467A
:10391000FFF744FEC82003B0BDE8F04F01F05CBFE4
:10392000F82C002030A000005C3600203CA00000F5
:103930003EA0000080A400001C2D002049A0000033
:1039400062A0000079A0000090A00000A4A00000E8
:10395000DEA40000042D002080330020F42C002081
:10396000002D00200C2D0020082D00202C2D0020E3
:10397000BEA00000D0A0000000C0384100409F4021
:10398000DCA00000E4A00000F1A00000102D002049
:10399000142D0020914200002087FF1F01A100008C
:1039A00018A100003BA100001F20FEF745FC2120CC
:1039B000FEF766FC1B211F48FDF74CF81E491D4809
:1039C000FDF73AF81D491B48FDF736F81B21194849
:1039D000FDF740F81A491748FDF72EF81B21154846
:1039E000FDF738F814491348FDF726F8154B114830
:1039F0001968FDF721F81B210E48FDF72BF8104937
:103A00000C48FDF719F80B480F49FFF7F2F94FF48E
:103A10007A7001F0E1FE022308E02120FEF730FC7D
:103A20001F20FEF72DFCFFF787FA0023237003B059
:103A3000BDE8F08F5C360020AB97000052A100007B
:103A4000C6970000FC2C0020DEA40000164A136874
:103A500043F480531360154B154A1A60154ADA6017
:103A600002F180421A61144A1A60144B1B78DA077B
:103A700055BF134A134A4FF410714FF4007113F0FD
:103A8000020F11600CBF104910495B074FF4007220
:103A900054BF0F4B0F4B0A6054BF4FF410724FF4DA
:103AA00000721A60704700BF3C80044000C00240B2
:103AB00001401F000110003800001F80F435002075
:103AC00018B0044008C004401CB004400CC00440BE
:103AD00014B0044004C004400B4B1A680B4B062979
:103AE00010B504461A600ED190F9030094F9041041
:103AF000FCF7E6FDA3780BB1FCF7D4FD6078BDE8D8
:103B00001040FCF72DBF10BD80330020502D002049
:103B100038B5134B1D681C461248002100F0B2FE58
:103B2000236842F210725B1B934212D91B2003F0F0
:103B300055FA0D490D48FCF77FFF0D490B48FCF77E
:103B40007BFF1B2003F04AFA0A490848FCF774FF80
:103B500038BD092001F020FD0028DDD038BD00BFB0
:103B600080330020582D0020AB9700005C360020E9
:103B700050A20000C697000038B5374B374918707F
:103B800004463748FCF758FF21460A2200233448F0
:103B900003F070FD32483349FCF74EFF822C43D0CE
:103BA00026D8022C3AD01CD8002C34D0012C4AD173
:103BB0002D4D2E4C2E492A48FCF73EFF21682B68DC
:103BC00027485B1A0A224FF47A71B3FBF1F1002304
:103BD00003F050FD2B68274921482360FEF7B8FB0E
:103BE00035E0032C1DD0042C2DD11D4822492CE09A
:103BF000872C1FD006D8832C19D0842C23D11848A9
:103C00001E4922E08A2C18D08E2C19D0882C1AD16B
:103C100013481B4919E012481A4916E010481A497E
:103C200013E00F48194910E00D4819490DE00C4800
:103C300018490AE00A48184907E00948174904E00A
:103C40000748174901E006481649FCF7F5FE1649F2
:103C50000348FFF7CEF838BD4D2D00206CA20000C0
:103C60005C36002090A2000080330020542D0020FC
:103C7000A5A20000B5A20000D0A200001AA3000077
:103C80003CA3000093A20000B8A20000BFA2000065
:103C9000E7A200000DA300002DA3000061A3000017
:103CA00071A3000083A3000097A30000024B1868D3
:103CB000024B1B68C01A704780330020502D002033
:103CC00038B5074C07492046002200F0E5FE0649BA
:103CD00005460022204600F0DFFE284438BD00BF24
:103CE000582D002099A300009CA300007FB5064634
:103CF00001240D4600940E4831460DF10B0203AB32
:103D000000F0D5FE68B9039BA34203D19DF80B30A8
:103D1000AB4208D031462A460023054800F09CFEFD
:103D200003E0204601E04FF0FF3004B070BD00BF5B
:103D3000582D002030B585B0054602230C4600936F
:103D40000D4829460DF10A0203AB00F0B0FE68B938
:103D5000039B022B03D1BDF80A30A34208D02946A9
:103D600022460023044800F086FE03E0012001E023
:103D70004FF0FF3005B030BD582D002030B589B070
:103D8000054602230C4600930F48294603AA02ABBE
:103D900000F08DFE88B9204605F080FA029B834230
:103DA00004D103A8214605F00FF940B12946224667
:103DB0000023054800F03BFE03E0012001E04FF046
:103DC000FF3009B030BD00BF582D002037B5054683
:103DD000204C092001F026FB1F482049257000F0E7
:103DE000F4FB1D481E4900F0F2FB002300931A4823
:103DF0000A2109220F2300F0AEFB68B921780129BE
:103E000002D11848FFF772FF2378022B06D1002158
:103E10001448FFF76BFF01E001240EE00121124876
:103E2000FFF764FF01211148FFF760FF01211048EF
:103E3000FFF75CFFFFF744FF00240748002100F074
:103E400021FD09200B49022201F0A6FA204603B009
:103E500030BD00BF4C2D0020582D0020D93A000065
:103E6000793B0000BDA30000C0A30000C3A3000075
:103E7000C6A30000113B000010B51A4B1B78022BA3
:103E800004462BD0092001F0CDFA02211648FFF795
:103E90002DFF02211548FFF729FF21461448FFF79F
:103EA0006DFF00211348FFF721FF01211248FFF7A2
:103EB0001DFF64211148FFF719FF01211048FFF78A
:103EC00015FFFFF7FDFE0F48002100F0DBFC092085
:103ED0000D49022201F060FA002010BD6FF00900C8
:103EE00010BD00BF4D2D0020C9A30000CCA30000D1
:103EF000CFA30000D2A30000BDA30000D5A3000003
:103F000080A30000582D0020113B000070B50D4625
:103F10000646092001F086FA2C02104B10481D803D
:103F2000A4B2104B04EB1524A4B200211E60FFF7CD
:103F300001FF21460C48FFF7FDFE31460B48FFF715
:103F40001DFFFFF7BDFE0A48002100F09BFC092081
:103F50000849022201F020FA002070BD4A2D0020FD
:103F6000D8A30000702D0020DBA30000DEA300001A
:103F7000582D0020113B00002DE9F043054687B085
:103F80000920894601F04EFA214B1B88ADF810300C
:103F900001238DF815301F4B1B780021012BADF844
:103FA000121002D18DF8143006E0022B04D11A4809
:103FB0008DF81410FFF79AFE184ECDF800904FF0D0
:103FC00001080027CDF8048002971548316804AA3B
:103FD0002B4600F08EFDEE2804460BD1CDF8009064
:103FE000CDF8048002970E48316804AA2B4600F0F1
:103FF00080FD04460A48002100F044FC09200949DC
:10400000022201F0C9F9204607B0BDE8F08300BFE5
:104010004A2D00204C2D0020BDA30000702D002053
:10402000582D0020113B00001FB5092001F0FAF9BE
:1040300004AA002302F8053D012300931548164900
:1040400003AB00F034FD9DF80B3013B9134B022283
:104050001A701048002100F015FC022209201049B6
:1040600001F09AF90F491048FCF7E6FC9DF80B1097
:104070000D481022002303F0FDFA0B4803F0EAFA82
:10408000039B012BD4BF9DF80B00EE2005B05DF81B
:1040900004FB00BF582D0020E1A300004D2D00209F
:1040A000113B0000E4A300005C36002008B5134972
:1040B0001348FEF79EFE092001F0B4F90F200121FC
:1040C00001F078FA00210F2001F046FA4FF47A70DF
:1040D00001F082FB0F20012101F03EFA0948002186
:1040E00000F0D0FB08490222092001F055F94FF4F5
:1040F000FA6001F071FB002008BD00BFF4A30000CE
:104100005C360020582D0020113B0000034B1A782C
:10411000022A1ABF18780130002070474D2D002068
:104120002DE9F84F214BD3F8009000AF05460C461F
:104130004FF000081E46A04523DA1D491D48FEF732
:1041400007F9EB1D23F00703EA46ADEB030D412110
:104150002A46684604F0C4FE68462946FFF70CFF6D
:104160008346684604F088FBBBF1000F05D0CBF115
:10417000000003F0DFFCD54615E008F10108D54644
:10418000D9E704FB05F0C00003F0D4FC3668044610
:10419000C9EB06000D4603F0BDFC02460B46204667
:1041A000294603F057FEBD46BDE8F88F8033002056
:1041B000CB9E00005C3600202DE9F041C6B00DF129
:1041C00024080025404628490395F42204F0EEFD1A
:1041D000092001F027F958F825602448142304AF7A
:1041E0003A460093314603AB0024039400F05FFC91
:1041F00031461F48FEF7ACF81D481E49FEF7A8F8E7
:10420000039B042B24D1039B9C420BDA395D184895
:104210000A22002303F02EFA15481749FEF798F8F2
:104220000134F0E715491248FCF7ACFB01351048A2
:1042300003F010FA3D2DCED10C48002100F022FBF6
:1042400009200F49022201F0A7F846B0BDE8F0812D
:10425000039B9C42E6DA395D05481022002303F0F7
:1042600009FA0134F4E700BF5CA10000582D0020DA
:104270005C360020479F0000CB9E0000DEA40000BB
:10428000113B0000014800F005B900BF582D002087
:10429000704710B5044603F0DBF9204610BDFFFF60
:1042A0001FB50A4B0C2201A81A60FCF711FB40F263
:1042B0006C53ADF80E3001AB03CB054A10601868A3
:1042C0005160906005B05DF804FB00BFEC32002047
:1042D000742D002010B5044B036000230446436096
:1042E000FFF7DEFF204610BDA8A400002DE9F8432B
:1042F000554EDFF86C8133681344B3F5AF6F044655
:104300008946154640F392802120FDF741FF37682A
:104310003068C7F5AF67404449463A4604F046FD69
:1043200063683B446360FFF7F1FE68B12120FDF74D
:1043300083FF1B214548FCF78DFB45494348FCF7AB
:104340007BFB4248434957E040464FF4AF61FFF7DB
:1043500013FE0328064618D11B213C48FCF77AFBC4
:104360003B493A48FCF768FB3B493848FCF764FB9B
:104370001B213648FCF76EFB38493448FCF75CFBE0
:10438000642001F029FA3648DFE7002841D02120D7
:10439000FDF752FF1B212D48FCF75CFB2C492B48F5
:1043A000FCF74AFB2F492948FCF746FB1B2127480D
:1043B000FCF750FB29492548FCF73EFB1B2123480D
:1043C000FCF748FB22492148FCF736FB31461F48E1
:1043D000FCF732FB1B211D48FCF73CFB1F491B4827
:1043E000FCF72AFB1B211948FCF734FB1849174836
:1043F000FCF722FB15481C49FCF71EFB1B21134848
:10440000FCF728FB15491148FCF716FB0020BDE816
:10441000F8832046FFF744FF204609EB0701EA1B1B
:10442000FFF764FF2120FDF707FF09E030684044F3
:1044300004F0BCFC33682B44336063681D44656042
:104440000120BDE8F88300BFEC3200205C3600207C
:10445000AB970000B0A40000DFA40000C6970000E6
:10446000742D002013A50000DAA4000040687047F6
:10447000002343607047FFFF054B4FF00042DA62B4
:104480005863DA6A002AFCDA014B986BC0B27047B5
:1044900000C0024010B5002304460370C38083604F
:1044A000C3600374437403754375FFF7CFFA204666
:1044B00010BD70B50D4616460C46631BB34204DAB8
:1044C00014F8010BFFF7D8FFF7E770BD70B5057D55
:1044D000044665B9012606750548FCF76BFA3046B7
:1044E00001F07AF96078294601F036F800BF70BD16
:1044F0000320033808B5037DE3B1437DD3B900BF82
:1045000001210375407801F027F80B4B1B788BB124
:10451000D90741BF094A1168094A11609A0741BF8A
:10452000064A5168074A11605B0741BF034B9A680E
:10453000054B1A6008BD00BF482D00203C2D00200F
:1045400000E100E004E100E008E100E008B500203F
:10455000FFF792FF08BDF8B5044617460D461E4604
:10456000FFF774FA9DF81830E37028466570A7705D
:104570002671012101F01EF86078012100F0ECFFA6
:10458000A078022101F016F80020F8BD084B70B5A4
:104590001D6806460D441C46B07800F0FDFF20B1B2
:1045A0002368AB42F8D3002070BD012070BD00BF6E
:1045B0008033002010B50446A07800F0EDFF18B954
:1045C0002046FFF7C3FFF7E710BD81607047C16069
:1045D0007047012970B505460E4609D00024731CAA
:1045E0009C4204D22846FFF7B1FF0134F7E770BDC3
:1045F0000020FFF741FF04460020FFF73DFFA4F134
:104600007603DB43DBB2984206D1EB682C701BB11A
:104610002046BDE87040184770BD70B586680446F6
:104620004EB1457C01354574084611461A46B047DF
:10463000637C013B637470BD2DE9F04FADF2DC5D2E
:1046400092460F46814600216846122204F048FC3B
:10465000A7F10A03BAF1B00FADF80C301EBF40F657
:10466000EE33ADF80630ADF8043055464FF004088F
:1046700000260020FFF700FFBAF1B00F0544044602
:10468000EDB223D1A8F10403082B33D8DFE803F0FF
:1046900026292C2F050A10151B00BDF8063043EA09
:1046A000002402E0BDF806301C43ADF806403BE0B4
:1046B000BDF8043043EA002402E0BDF804301C4396
:1046C000ADF8044030E08DF808002DE0A8F10703B4
:1046D000032B0FD8DFE803F00205080B8DF800402C
:1046E00022E08DF801401FE08DF802401CE08DF8BB
:1046F000034019E0B8F10D0F16DDB6F5B86F0DF1F6
:10470000140B0ED1012F0CD932466B464846594640
:10471000FFF783FFBDF80E3003F5B863ADF80E3038
:1047200000260BF806400136013F08F10108A0D130
:104730003846FFF7A1FEED43EDB2A8421CBF0123AE
:104740008DF8113001238DF810302EB1484605A99F
:1047500032466B46FFF761FFB9F806300133A9F81E
:1047600006300DF2DC5DBDE8F08F2DE9F74F9B467A
:104770009DF83880019100230446164613602046B8
:104780000D99FFF703FF002874D02046FFF79EFE27
:104790000020FFF771FE7E2808D02046FFF70AFFB1
:1047A0002046FFF7A7FE6FF0010068E00020FFF74A
:1047B00063FE05460020FFF75FFE40EA0525002066
:1047C000FFF75AFE892805F1FF39824603D887286A
:1047D00016D2802802E08A280AD0B02802D04FF0F2
:1047E000000A3BE0204649465246FFF725FF3DE0E0
:1047F000B8F1000F04D120464946FFF7EAFE35E044
:1048000000275546B8464F450ED00020FFF734FE2E
:104810000C9B05449F4238BF0BF80700EDB228BF40
:104820004FF001080137EEE70020FFF725FE0C9B53
:104830009F4294BF37603360019BED43834683F80A
:1048400000A02046EDB2FFF755FEB8F1000F14D1DD
:104850005D4514BF6FF00300002010E0AA4505D0AD
:104860002046FFF773FE0AF1010AF7E72046FFF73B
:1048700041FE84E74FF0FF3001E06FF0020003B02B
:10488000BDE8F08F10B50446ADF5BB6D4FF4B863CD
:1048900000930023019302930123039320460DF11B
:1048A000130105AA06ABFFF760FF0130EED10DF54D
:1048B000BB6D10BDF7B5044615461E460F46FFF703
:1048C00005FE0123637500212046FFF7DBFF00236F
:1048D0006375711933463A468B4204D013F8010BC5
:1048E0000244D2B2F8E77E238DF80430D2436B1C29
:1048F0008DF803201A0A8DF80520204601A904220C
:104900008DF806308DF80770FFF7D3FD204631464D
:104910002A46FFF7CEFD20460DF103010122FFF7E5
:10492000C8FD2046FFF7E6FD03B0F0BD2DE9F043DA
:10493000ADF2DC5D04469DF80086DDF8F8650D46B5
:104940009946B8F1000F07D1077C781C10F0FF00E2
:1049500055D10237277453E000202B788DF81800CA
:1049600011468DF819304A466B788DF81A300DF1E2
:104970001B0004F01BFAB8F1000F14BF0921082135
:10498000204609F1030206ABFFF794FFB8F1000FD0
:1049900033D12B78412B02D16B78532B2DD04FF490
:1049A000B86241F2883300258DE82C00039520463B
:1049B0000DF1130105AA06ABFFF7D7FED8B99DF894
:1049C0001330882B1ED19DF81820237C9A4219D1D0
:1049D0009DF81B30B3B986B1059ADDF8FC35043A71
:1049E000B2F5B86F1A60304607A9A8BF4FF4B86295
:1049F00004F0DCF901E0284604E0012002E0207424
:104A0000207CAAE70DF2DC5DBDE8F083F0B5477CC1
:104A10009DF81C409E4647B940F2BD57BB4204DC9E
:104A20000794BDE8F040FFF781BF0020F0BDF0B56E
:104A3000064685B0104614461F460D4604F02EFC6F
:104A400000220346009201920297304629462246F0
:104A5000FFF7DCFF05B0F0BD10B586B006AC04F87A
:104A6000012D002200920192029322460123FFF7BA
:104A7000CDFF06B010BD10B5140A86B044EA02247A
:104A800006AA22F8024D0024029300940194022306
:104A9000FFF7BCFF06B010BD1FB5002302920093C4
:104AA00001931A46FFF7B2FF05B05DF804FB2DE94C
:104AB000F041ADF5BB6D174606AD002205AE984638
:104AC0000095019602921346FFF7A0FF044658B1E5
:104AD0003368DDF8F025C8F800309A423846294698
:104AE000A8BF1A4604F062F920460DF5BB6DBDE87B
:104AF000F0812DE9F04FADF2F45D044693469DF848
:104B00002026059289469846DDF818769DF81C66A1
:104B1000FFF7DCFC01236375A07800F03DFD059AEA
:104B2000014618B92046FFF7ADFE059A617C0023C7
:104B30006375002940F0B2809F4240F3AD803EB1E2
:104B4000237C591C11F0FF010ABF02332174237426
:104B5000002A08AD14BF4FF00E0A4FF00F0A4FF0B5
:104B60007E032B7007EB0A03A3F103034FEA232311
:104B70006B70A7F103035344AB7014BF00232023D1
:104B8000EB700EB1237C00E033462B7132B1002371
:104B90006B71AB71EB712B72092100E0052199F863
:104BA00000306B546B1899F80100587099F80200A6
:104BB000987099F80300D8700431C2B9BBF800208E
:104BC000101268545A71BBF80220DA7111129BF866
:104BD0000420997102F1FF3EDEF1000242EB0E0269
:104BE0001A729BF8052082F001025A7201E000233C
:104BF0006B542046FFF76AFC204629465246FFF7D1
:104C000058FC3A4620464146FFF753FC0023032256
:104C1000A95C01320B445245DBB2F9D1424612F88D
:104C2000011B0B44C8EB0201B942DBB2F7DBDB43EB
:104C300020460DF11A0101228DF81A30FFF739FCD8
:104C40002046FFF757FC2EB34FF4B86042F21073C2
:104C50008DE8090000230293039320460DF11B0108
:104C600007AA0CABFFF781FD78B99DF81B30892BA3
:104C700003D02046FFF79EFC0EE09DF83020237CF9
:104C80009A42F6D19DF831000CE02046FFF792FCE5
:104C9000EE2007E0304605E0FF2003E0002FFBDDBB
:104CA0001E4655E70DF2F45DBDE8F08FF0B5304BD0
:104CB0001B681B06FBD42F4B196811F08001F6D13D
:104CC00072B62D480378002B50D02C4A2C4B1B6811
:104CD000176856689568D4683B44103233441268AC
:104CE0002B4423441344C3F34E03264A43F40043A6
:104CF0001360254B1B68176B566B956BD46B3B444D
:104D00004032334412682B4423441344C3F34E030C
:104D10001E4A43F40043136002F500220C321C4B80
:104D20001B68176856689568D4683B441032334452
:104D300012682B4423441344C3F34E03154A43F42F
:104D400000431360144B1B68176B566B956BD46B49
:104D50003B444032334412682B4423441344C3F38E
:104D60004E030E4A43F400431360017062B6F0BD77
:104D700024B0034024B00B40F13200203CB003408B
:104D800038B003402CB0034058B0034030B003406B
:104D900038B00B402CB00B4058B00B4030B00B403B
:104DA00010B5204B2048214960221A70E1225A7028
:104DB0001F4B204A1C78204B082C01D1012402E013
:104DC0000A2C03D139240460132005E00C2C0CBFFD
:104DD00035243D2404601220086014601860174BCD
:104DE00017491B78174A03B101230B601360164B58
:104DF000164A1978164B012901D880210BE00429A5
:104E000001D8842107E0082901D8852103E0102971
:104E100094BF86218721116019600E4B01221A7000
:104E200010BD00BF0040074008B003400CB0034075
:104E30002488FF1F08B00B400CB00B40F432002058
:104E400020B0034020B00B402588FF1F24B0034052
:104E500024B00B40F13200200D2838B50FD91728A7
:104E600001D80E380AE0A0F11A03052B01D8093841
:104E700004E0A0F12203062B47D81838C0B2244B17
:104E80001D5C244B1B780BB1FFF710FF290614D4CF
:104E900072B6214B214C1D600123237062B672B69D
:104EA0001D4B1B681A0601D51D4B1FE02378002BF4
:104EB000EFD062B602F0CCFCF1E772B6194B1A4C97
:104EC0001A6815F0400F14BF22F0100242F01002D1
:104ED0001A60164A05F03F0313600123237062B67F
:104EE00072B6124B1B681B0608D5114B18680023BD
:104EF000237062B60F4B1B78184138BD2378002B06
:104F0000DCD062B602F0A4FCEAE7002038BD00BFA6
:104F100039A50000F132002000B00340F332002038
:104F200010B003400CB00B40F232002000B00B4038
:104F300010B00B40F0320020084A136843F480534D
:104F40001360074B1A78074B0AB1802200E0C02299
:104F50001A70054B80F30C00188070472C800440B9
:104F6000F432002021C00C4000C00C40024B1B78E2
:104F7000DB07FBD5704700BF010002407FB5174B30
:104F80006A4603F110066D4618685968144603C452
:104F90000833B3422246F7D1114B1A7812F0020FB0
:104FA0001E4612D080229A7133229A7203225A72BC
:104FB00072B60C4C45F001032046984762B6237840
:104FC00013F0700301D0237006E044F621633278B9
:104FD000D20701D4013BFAD104B070BD50A5000046
:104FE0000100024000000240B0F5006F10B5044619
:104FF00009D2064B1B78DB0701D4FFF7BFFF04F192
:10500000A054207810BD002010BD00BF0100024058
:10501000B0F5006F38B504460D460FD2084B1B782B
:10502000DB0701D4FFF7AAFF04F1A0542378AB42B9
:1050300004D02570BDE83840FFF798BF38BD00BFE9
:1050400001000240024A136801331360704700BF39
:105050008033002008B50B4C2368580301D501F0BC
:105060007DFB2368590501D500F0F2FD23681A0580
:1050700001D501F039F82368DB04ECD501F016FA0C
:10508000E9E700BF3480044008B5FFF7E3FFFFFF06
:10509000014B10221A807047002005407047FFFF27
:1050A000024A136818441060184670472888FF1F8A
:1050B0000078B0FA80F04009704701230370704710
:1050C000EFF313839BB9EFF3108098B9EFF30583E7
:1050D00023B10F2B04D9084A985C01E04FF480708B
:1050E000EFF311833BB1984228BF184670474FF049
:1050F000FF30704718467047F0E300E030B50346D4
:105100000020B3FBF2F402FB1433092B94BF3033BD
:105110003733DBB20B5423460CB10130F1E70A18E8
:1051200023465470C41AA34206DACC5C1578CD54D9
:1051300002F801490133F5E7084630BD204B10B5B0
:105140001C681C60E00304D51E4B1A680AB11B687A
:105150009847A10304D51B4B5A680AB15B6898476E
:10516000E20704D5174B1A6C0AB11B6C9847A307CA
:1051700004D5144B5A6C0AB15B6C9847200704D5D0
:10518000104B9A6C0AB19B6C9847610704D50D4B84
:10519000DA6C0AB1DB6C9847220304D5094B5A6ECE
:1051A0000AB15B6E9847630308D5064BD3F880209D
:1051B00022B1D3F88030BDE81040184710BD00BFC1
:1051C000A0A00440F83200202D4B10B51C681C60D4
:1051D000200704D52B4B5A6A0AB15B6A9847E1064F
:1051E00004D5284B9A6A0AB19B6A9847620604D58F
:1051F000244BDA6A0AB1DB6A9847230604D5214BAF
:105200001A6B0AB11B6B9847A00604D51D4B5A6B4D
:105210000AB15B6B9847E10704D51A4BDA6B0AB108
:10522000DB6B9847A20704D5164B9A6D0AB19B6DAC
:105230009847630704D5134BDA6D0AB1DB6D9847C5
:10524000A00504D50F4BDA6E0AB1DB6E9847E10575
:1052500004D50C4B1A6F0AB11B6F9847620504D531
:10526000084B5A6F0AB15B6F9847230506D5054B6B
:105270009A6F1AB19B6FBDE81040184710BD00BF70
:10528000A0B00440F83200201F4B10B51C681C6011
:10529000E00704D51D4B9A680AB19B689847210620
:1052A00004D51A4B5A690AB15B699847E20604D5DE
:1052B000164B9A690AB19B699847630704D5134B4B
:1052C000DA690AB1DB699847200704D50F4B1A6ADF
:1052D0000AB11B6A9847A10704D50C4B9A6B0AB117
:1052E0009B6B9847A20604D5084B1A6D0AB11B6D3B
:1052F0009847630606D5054B5A6D1AB15B6DBDE83C
:105300001040184710BD00BFA0C00440F832002074
:10531000124B10B51C681C60E00404D5104BDA6811
:105320000AB1DB689847A10404D50D4B1A690AB18C
:105330001B699847A20604D5094B1A6E0AB11B6E69
:105340009847E30608D5064BD3F8842022B1D3F85A
:105350008430BDE81040184710BD00BFA090044045
:10536000F83200200A4B10B51C681C60A20704D557
:10537000084B9A6E0AB19B6E9847E30706D5054B1A
:10538000DA6F1AB1DB6FBDE81040184710BD00BFDF
:10539000A0D00440F8320020212830B531D8042AAA
:1053A0002FD8DFE802F0070905030B00092306E008
:1053B0000A2304E0082302E00C2300E00B23114A37
:1053C000114D02EBC0025468104AC2F89C51104DB6
:1053D000C2F8A0510F4DC2F8A4510F4DC2F8A85108
:1053E0000E4DC2F8AC5172B6226822F470222260CF
:1053F00042F080750A4A45EA034342F820102360D0
:1054000062B630BD60A50000115300000082FF1F8E
:105410003D510000C9510000895200006553000051
:10542000F8320020094B03EBC0035A6872B61368C8
:1054300023F0877323F4803343F080731360044BAD
:10544000002243F8202062B6704700BF60A500002C
:10545000F8320020044B054900221A600A60044A11
:10546000106010221A60704714D0034004D003402B
:1054700000D0034018B1102828BF102000E0012000
:10548000014B1870704700BF2C88FF1FF8B5054608
:105490000F460024264E46FA04F002F04DFF4FF06E
:1054A0005E5102F09DFF0146384603F04BF910B9FA
:1054B0000134072CEED146FA04F002F03DFF3946E4
:1054C00003F042F84FF07C5102F080FE03F074F9D3
:1054D0004FF6FF73984228BF1846EB1E012B06D8E3
:1054E000144B154900221A600A60144A1BE0A5F10A
:1054F0000903012B06D9A5F11403032B02D96B1F55
:10550000012B06D80E4B0F4900221A600A600E4A82
:1055100009E0202D01D0192D09D10C4B0C49002296
:105520001A600A600B4A106044F008041C60F8BD61
:10553000006CDC020090034004900340089003409C
:1055400000800340048003400880034000800B403B
:1055500004800B4008800B40212810B518D80D4B53
:1055600053F8302092F880423CB1012311B182F807
:10557000803010BD82F8003110BD03EBC0035B68C2
:105580001A6811B142F0030201E022F002021A602F
:1055900010BD00BF60A5000021289FBF044B53F839
:1055A000303093F80002C0B288BF0020704700BFBF
:1055B00060A50000212816D80B4A02EBC003012980
:1055C0005B6852F8302004D182F880124FF4A27246
:1055D00008E0002082F8800211B94FF4807201E0E7
:1055E00040F203121A60704760A50000282838B501
:1055F00005464E4B0FD11B780B2B03D8C3F10C0380
:10560000994003E00C2B1CBF0C3B19410846BDE838
:105610003840FFF791BC1A780124002904FA02F3FC
:1056200001DC002102E0994205D32146FFF794FFF7
:105630002846214675E00338C3B2012B01D83C4B04
:1056400006E0202D01D0192D01D13A4B00E03A4B54
:105650001B6803FB0113D3401D2859D8DFE800F075
:105660003F45392758581B215858585858585858AA
:10567000582D330F1558515858585858584B2F4AD1
:10568000136040F244422E4B40E02E4A136040F239
:1056900044422D4B3AE02D4A136040F244422C4BD9
:1056A00034E02C4A136040F244422B4B2EE02B4A4C
:1056B000136040F244422A4B28E02A4A136040F229
:1056C0004442294B22E0294A136040F24442284BCD
:1056D0001CE0284A136040F24442274B16E0274A58
:1056E00013604FF45172264B10E0264A13604FF4BA
:1056F0005172254B0AE0254A13604FF45172244B36
:1057000004E0244A1360244B4FF451721A6038BDF0
:105710007F292846D4BF00210121FFF71DFF28461D
:105720000121BDE83840FFF745BF00BF2C88FF1FAF
:105730000890034008800B4008800340108003401D
:1057400004B004401880034008B0044020800340A7
:105750000CB004402880034010B004403080034067
:1057600010C004403880034014C00440408003400F
:1057700018C00440488003401CC0044010900340FF
:1057800030900440189003403490044010800B4047
:1057900048A0044018800B404CA0044072B60B4B4C
:1057A0000B4A0C491B681268096862B6490102D5A8
:1057B000322B88BF0132C3F5BB336020FF33B3FB0C
:1057C000F0F34FF47A7000FB0230704718E000E00D
:1057D0008033002004ED00E038B50446FFF7DEFF1B
:1057E000054664B1FFF7DAFF401BB0F57A7F03D3BB
:1057F000013C04D005F57A7502F02AF8F2E738BDCD
:105800001F4B4FF4000210B51A604FF080721A60FF
:105810004FF000721A604FF080621A604FF0006221
:105820001A60184B184A194C00204BF6FF7118608B
:10583000596028231360936013619361136293622C
:10584000136393630922226004F5805404342060BA
:105850006160A360236144F8042C04F5FE242060F9
:105860000B4801600B490B608B600B4B1A60FFF714
:1058700097FA0420FFF7B0FFBDE8104001F076BAB8
:1058800008E100E0048003400C80034000800340F6
:1058900008800B400C800B4000800B40194A1368B5
:1058A00043F480631360184A00231370174A13707F
:1058B000174A1370174A1370174A1370174B40F2A8
:1058C00013321A604FF451725A60154BC0F34432D0
:1058D0001A70C0F347125A700221042200F01F0010
:1058E00098729A70D9745A7588221A743C22DA70A8
:1058F0000C4B40226FF44A711A700B444FF4005263
:105900001A6070473480044006340020853300203C
:105910000C340020073400208433002040A00440D1
:1059200000A006402DE400E0134B9A7802F0EC0151
:1059300000F003020A43410748BF42F010029A7088
:105940000D4900F00F02042A02BF8A7942F040029A
:105950008A715A79C30602F0EF02074B48BF42F042
:1059600010025A719A79810602F0EF0248BF42F0A4
:1059700010029A71704700BF00A0064008B50E4B98
:105980001B685B0500D408BD0C4B1A7802F0FF03BE
:1059900012B101F05DFFF7E7094A4FF400511160C1
:1059A000084A0949D37040F203120A604A60074A64
:1059B0001370074A137008BD3480044084330020FC
:1059C00084E100E000A0064040A00440063400202E
:1059D0008533002038B50446094B1B7803F0FF05DA
:1059E000002BF9D120460121FFF7E4FD204629468E
:1059F000FFF7B2FD034B53F83420034B1A6038BD58
:105A00008433002060A5000008340020F8B51C4B4A
:105A10001B685A05064632D51A4B1B680BB101228A
:105A20001A70194D2C780134402C28BF0024174FD0
:105A30003B78A34218D1FFF743FB40280FDC144901
:105A40000B791B06F3D53B78124A0133402B28BF54
:105A50000023D25CDBB2D2B2CA713B70E7E7FF2809
:105A6000E5DD01F0F5FEE2E70A4BF6B21E550A4B02
:105A700001221A70064BE4B2BC222C70DA70F8BD19
:105A800034800440083400200C3400200734002007
:105A900000A006408633002084330020274B1B687B
:105AA0005A052DE9F04705460F4644D5244B1B689F
:105AB0000BB101221A70AA46EB199A4538D2214E31
:105AC000214B347893F800800134402C28BF002407
:105AD0005FFA88F8A045994620D11C4BBC22DA70A9
